{
  "address": "0x6543ce67f831f0d6137d35Ca9edab7C4AF00eD59",
  "abi": [
    {
      "anonymous": false,
      "inputs": [
        {
          "indexed": false,
          "internalType": "bytes32",
          "name": "positionKey",
          "type": "bytes32"
        },
        {
          "indexed": false,
          "internalType": "bool",
          "name": "isExecuted",
          "type": "bool"
        },
        {
          "indexed": false,
          "internalType": "bool",
          "name": "isIncrease",
          "type": "bool"
        }
      ],
      "name": "CallbackCalled",
      "type": "event"
    },
    {
      "inputs": [
        {
          "internalType": "bytes32",
          "name": "positionKey",
          "type": "bytes32"
        },
        {
          "internalType": "bool",
          "name": "isExecuted",
          "type": "bool"
        },
        {
          "internalType": "bool",
          "name": "isIncrease",
          "type": "bool"
        }
      ],
      "name": "gmxPositionCallback",
      "outputs": [],
      "stateMutability": "nonpayable",
      "type": "function"
    },
    {
      "inputs": [],
      "name": "positionRouter",
      "outputs": [
        {
          "internalType": "address",
          "name": "",
          "type": "address"
        }
      ],
      "stateMutability": "view",
      "type": "function"
    }
  ],
  "args": [],
  "numDeployments": 1,
  "solcInputHash": "b3bd6745b6a6a81bd224608df622c6d1",
  "bytecode": "0x608060405273b87a436b93ffe9d75c5cfa7bacfff96430b098686000806101000a81548173ffffffffffffffffffffffffffffffffffffffff021916908373ffffffffffffffffffffffffffffffffffffffff16021790555034801561006457600080fd5b50610248806100746000396000f3fe608060405234801561001057600080fd5b50600436106100365760003560e01c806361ef161f1461003b578063edf3daec14610085575b600080fd5b6100436100cb565b604051808273ffffffffffffffffffffffffffffffffffffffff1673ffffffffffffffffffffffffffffffffffffffff16815260200191505060405180910390f35b6100c96004803603606081101561009b57600080fd5b81019080803590602001909291908035151590602001909291908035151590602001909291905050506100f0565b005b6000809054906101000a900473ffffffffffffffffffffffffffffffffffffffff1681565b6000809054906101000a900473ffffffffffffffffffffffffffffffffffffffff1673ffffffffffffffffffffffffffffffffffffffff163373ffffffffffffffffffffffffffffffffffffffff1614610195576040517f08c379a00000000000000000000000000000000000000000000000000000000081526004018080602001828103825260298152602001806101ea6029913960400191505060405180910390fd5b7f4c5b183c9c52e97ac4369ee0a4685a3af880b74946655c4b6e7366b6af173380838383604051808481526020018315151515815260200182151515158152602001935050505060405180910390a150505056fe506f736974696f6e526f7574657243616c6c6261636b52656365697665723a20666f7262696464656ea26469706673582212203eef8e8126888adc8ff3fce9eddc9a5540ff83d4f2879538f92b1f345a54ba5464736f6c63430006000033",
  "devdoc": {
    "methods": {}
  },
  "userdoc": {
    "methods": {}
  },
  "storageLayout": {
    "storage": [
      {
        "astId": 16,
        "contract": "contracts/gmx/PositionRouterCallbackReceiver.sol:PositionRouterCallbackReceiver",
        "label": "positionRouter",
        "offset": 0,
        "slot": "0",
        "type": "t_address"
      }
    ],
    "types": {
      "t_address": {
        "encoding": "inplace",
        "label": "address",
        "numberOfBytes": "20"
      }
    }
  }
}