{
  "address": "0x6BB3b44e89fbEF97238c00C4b8652cE7d5b5a66C",
  "abi": [
    {
      "inputs": [
        {
          "internalType": "contract IEntryPoint",
          "name": "anEntryPoint",
          "type": "address"
        }
      ],
      "stateMutability": "nonpayable",
      "type": "constructor"
    },
    {
      "anonymous": false,
      "inputs": [
        {
          "indexed": false,
          "internalType": "address",
          "name": "previousAdmin",
          "type": "address"
        },
        {
          "indexed": false,
          "internalType": "address",
          "name": "newAdmin",
          "type": "address"
        }
      ],
      "name": "AdminChanged",
      "type": "event"
    },
    {
      "anonymous": false,
      "inputs": [
        {
          "indexed": true,
          "internalType": "address",
          "name": "beacon",
          "type": "address"
        }
      ],
      "name": "BeaconUpgraded",
      "type": "event"
    },
    {
      "anonymous": false,
      "inputs": [
        {
          "indexed": false,
          "internalType": "uint8",
          "name": "version",
          "type": "uint8"
        }
      ],
      "name": "Initialized",
      "type": "event"
    },
    {
      "anonymous": false,
      "inputs": [
        {
          "indexed": true,
          "internalType": "address",
          "name": "inviter",
          "type": "address"
        },
        {
          "indexed": true,
          "internalType": "address",
          "name": "invitee",
          "type": "address"
        }
      ],
      "name": "InviterInitialized",
      "type": "event"
    },
    {
      "anonymous": false,
      "inputs": [
        {
          "indexed": true,
          "internalType": "address",
          "name": "account",
          "type": "address"
        },
        {
          "indexed": false,
          "internalType": "address",
          "name": "oldOwner",
          "type": "address"
        },
        {
          "indexed": false,
          "internalType": "address",
          "name": "newOwner",
          "type": "address"
        }
      ],
      "name": "ResetOwner",
      "type": "event"
    },
    {
      "anonymous": false,
      "inputs": [
        {
          "indexed": true,
          "internalType": "string",
          "name": "key",
          "type": "string"
        },
        {
          "indexed": true,
          "internalType": "string",
          "name": "value",
          "type": "string"
        }
      ],
      "name": "SetMetadata",
      "type": "event"
    },
    {
      "anonymous": false,
      "inputs": [
        {
          "indexed": true,
          "internalType": "contract IEntryPoint",
          "name": "entryPoint",
          "type": "address"
        },
        {
          "indexed": true,
          "internalType": "address",
          "name": "owner",
          "type": "address"
        }
      ],
      "name": "SimpleAccountInitialized",
      "type": "event"
    },
    {
      "anonymous": false,
      "inputs": [
        {
          "indexed": true,
          "internalType": "address",
          "name": "implementation",
          "type": "address"
        }
      ],
      "name": "Upgraded",
      "type": "event"
    },
    {
      "inputs": [],
      "name": "addDeposit",
      "outputs": [],
      "stateMutability": "payable",
      "type": "function"
    },
    {
      "inputs": [
        {
          "internalType": "address",
          "name": "guardian",
          "type": "address"
        }
      ],
      "name": "changeGuardian",
      "outputs": [],
      "stateMutability": "nonpayable",
      "type": "function"
    },
    {
      "inputs": [
        {
          "internalType": "address",
          "name": "operator",
          "type": "address"
        }
      ],
      "name": "changeOperator",
      "outputs": [],
      "stateMutability": "nonpayable",
      "type": "function"
    },
    {
      "inputs": [],
      "name": "entryPoint",
      "outputs": [
        {
          "internalType": "contract IEntryPoint",
          "name": "",
          "type": "address"
        }
      ],
      "stateMutability": "view",
      "type": "function"
    },
    {
      "inputs": [
        {
          "internalType": "address",
          "name": "dest",
          "type": "address"
        },
        {
          "internalType": "uint256",
          "name": "value",
          "type": "uint256"
        },
        {
          "internalType": "bytes",
          "name": "func",
          "type": "bytes"
        }
      ],
      "name": "execute",
      "outputs": [],
      "stateMutability": "nonpayable",
      "type": "function"
    },
    {
      "inputs": [
        {
          "internalType": "address[]",
          "name": "dest",
          "type": "address[]"
        },
        {
          "internalType": "uint256[]",
          "name": "value",
          "type": "uint256[]"
        },
        {
          "internalType": "bytes[]",
          "name": "func",
          "type": "bytes[]"
        }
      ],
      "name": "executeBatch",
      "outputs": [],
      "stateMutability": "nonpayable",
      "type": "function"
    },
    {
      "inputs": [],
      "name": "getDeposit",
      "outputs": [
        {
          "internalType": "uint256",
          "name": "",
          "type": "uint256"
        }
      ],
      "stateMutability": "view",
      "type": "function"
    },
    {
      "inputs": [],
      "name": "getGuardian",
      "outputs": [
        {
          "internalType": "address",
          "name": "",
          "type": "address"
        }
      ],
      "stateMutability": "view",
      "type": "function"
    },
    {
      "inputs": [],
      "name": "getInviter",
      "outputs": [
        {
          "internalType": "address",
          "name": "",
          "type": "address"
        }
      ],
      "stateMutability": "view",
      "type": "function"
    },
    {
      "inputs": [
        {
          "internalType": "string",
          "name": "key",
          "type": "string"
        }
      ],
      "name": "getMetadata",
      "outputs": [
        {
          "internalType": "string",
          "name": "value",
          "type": "string"
        }
      ],
      "stateMutability": "view",
      "type": "function"
    },
    {
      "inputs": [],
      "name": "getNonce",
      "outputs": [
        {
          "internalType": "uint256",
          "name": "",
          "type": "uint256"
        }
      ],
      "stateMutability": "view",
      "type": "function"
    },
    {
      "inputs": [],
      "name": "getOperator",
      "outputs": [
        {
          "internalType": "address",
          "name": "",
          "type": "address"
        }
      ],
      "stateMutability": "view",
      "type": "function"
    },
    {
      "inputs": [],
      "name": "getVersion",
      "outputs": [
        {
          "internalType": "uint256",
          "name": "",
          "type": "uint256"
        }
      ],
      "stateMutability": "pure",
      "type": "function"
    },
    {
      "inputs": [],
      "name": "guardian",
      "outputs": [
        {
          "internalType": "address",
          "name": "",
          "type": "address"
        }
      ],
      "stateMutability": "view",
      "type": "function"
    },
    {
      "inputs": [
        {
          "internalType": "address",
          "name": "anOwner",
          "type": "address"
        },
        {
          "internalType": "address",
          "name": "guardian",
          "type": "address"
        },
        {
          "internalType": "uint256",
          "name": "threshold",
          "type": "uint256"
        },
        {
          "internalType": "uint256",
          "name": "guardianDelay",
          "type": "uint256"
        },
        {
          "internalType": "address[]",
          "name": "guardians",
          "type": "address[]"
        },
        {
          "internalType": "address",
          "name": "inviter",
          "type": "address"
        }
      ],
      "name": "initialize",
      "outputs": [],
      "stateMutability": "nonpayable",
      "type": "function"
    },
    {
      "inputs": [
        {
          "internalType": "address",
          "name": "anOwner",
          "type": "address"
        }
      ],
      "name": "initialize",
      "outputs": [],
      "stateMutability": "nonpayable",
      "type": "function"
    },
    {
      "inputs": [],
      "name": "inviter",
      "outputs": [
        {
          "internalType": "address",
          "name": "",
          "type": "address"
        }
      ],
      "stateMutability": "view",
      "type": "function"
    },
    {
      "inputs": [
        {
          "internalType": "string",
          "name": "",
          "type": "string"
        }
      ],
      "name": "metadata",
      "outputs": [
        {
          "internalType": "string",
          "name": "",
          "type": "string"
        }
      ],
      "stateMutability": "view",
      "type": "function"
    },
    {
      "inputs": [
        {
          "internalType": "address",
          "name": "",
          "type": "address"
        },
        {
          "internalType": "address",
          "name": "",
          "type": "address"
        },
        {
          "internalType": "uint256[]",
          "name": "",
          "type": "uint256[]"
        },
        {
          "internalType": "uint256[]",
          "name": "",
          "type": "uint256[]"
        },
        {
          "internalType": "bytes",
          "name": "",
          "type": "bytes"
        }
      ],
      "name": "onERC1155BatchReceived",
      "outputs": [
        {
          "internalType": "bytes4",
          "name": "",
          "type": "bytes4"
        }
      ],
      "stateMutability": "pure",
      "type": "function"
    },
    {
      "inputs": [
        {
          "internalType": "address",
          "name": "",
          "type": "address"
        },
        {
          "internalType": "address",
          "name": "",
          "type": "address"
        },
        {
          "internalType": "uint256",
          "name": "",
          "type": "uint256"
        },
        {
          "internalType": "uint256",
          "name": "",
          "type": "uint256"
        },
        {
          "internalType": "bytes",
          "name": "",
          "type": "bytes"
        }
      ],
      "name": "onERC1155Received",
      "outputs": [
        {
          "internalType": "bytes4",
          "name": "",
          "type": "bytes4"
        }
      ],
      "stateMutability": "pure",
      "type": "function"
    },
    {
      "inputs": [
        {
          "internalType": "address",
          "name": "",
          "type": "address"
        },
        {
          "internalType": "address",
          "name": "",
          "type": "address"
        },
        {
          "internalType": "uint256",
          "name": "",
          "type": "uint256"
        },
        {
          "internalType": "bytes",
          "name": "",
          "type": "bytes"
        }
      ],
      "name": "onERC721Received",
      "outputs": [
        {
          "internalType": "bytes4",
          "name": "",
          "type": "bytes4"
        }
      ],
      "stateMutability": "pure",
      "type": "function"
    },
    {
      "inputs": [],
      "name": "operator",
      "outputs": [
        {
          "internalType": "address",
          "name": "",
          "type": "address"
        }
      ],
      "stateMutability": "view",
      "type": "function"
    },
    {
      "inputs": [],
      "name": "owner",
      "outputs": [
        {
          "internalType": "address",
          "name": "",
          "type": "address"
        }
      ],
      "stateMutability": "view",
      "type": "function"
    },
    {
      "inputs": [],
      "name": "proxiableUUID",
      "outputs": [
        {
          "internalType": "bytes32",
          "name": "",
          "type": "bytes32"
        }
      ],
      "stateMutability": "view",
      "type": "function"
    },
    {
      "inputs": [
        {
          "internalType": "address",
          "name": "newOwner",
          "type": "address"
        }
      ],
      "name": "resetOwner",
      "outputs": [],
      "stateMutability": "nonpayable",
      "type": "function"
    },
    {
      "inputs": [
        {
          "internalType": "string",
          "name": "key",
          "type": "string"
        },
        {
          "internalType": "string",
          "name": "value",
          "type": "string"
        }
      ],
      "name": "setMetadata",
      "outputs": [],
      "stateMutability": "nonpayable",
      "type": "function"
    },
    {
      "inputs": [
        {
          "internalType": "bytes4",
          "name": "interfaceId",
          "type": "bytes4"
        }
      ],
      "name": "supportsInterface",
      "outputs": [
        {
          "internalType": "bool",
          "name": "",
          "type": "bool"
        }
      ],
      "stateMutability": "view",
      "type": "function"
    },
    {
      "inputs": [
        {
          "internalType": "address",
          "name": "",
          "type": "address"
        },
        {
          "internalType": "address",
          "name": "",
          "type": "address"
        },
        {
          "internalType": "address",
          "name": "",
          "type": "address"
        },
        {
          "internalType": "uint256",
          "name": "",
          "type": "uint256"
        },
        {
          "internalType": "bytes",
          "name": "",
          "type": "bytes"
        },
        {
          "internalType": "bytes",
          "name": "",
          "type": "bytes"
        }
      ],
      "name": "tokensReceived",
      "outputs": [],
      "stateMutability": "pure",
      "type": "function"
    },
    {
      "inputs": [
        {
          "internalType": "address",
          "name": "newImplementation",
          "type": "address"
        }
      ],
      "name": "upgradeTo",
      "outputs": [],
      "stateMutability": "nonpayable",
      "type": "function"
    },
    {
      "inputs": [
        {
          "internalType": "address",
          "name": "newImplementation",
          "type": "address"
        },
        {
          "internalType": "bytes",
          "name": "data",
          "type": "bytes"
        }
      ],
      "name": "upgradeToAndCall",
      "outputs": [],
      "stateMutability": "payable",
      "type": "function"
    },
    {
      "inputs": [
        {
          "components": [
            {
              "internalType": "address",
              "name": "sender",
              "type": "address"
            },
            {
              "internalType": "uint256",
              "name": "nonce",
              "type": "uint256"
            },
            {
              "internalType": "bytes",
              "name": "initCode",
              "type": "bytes"
            },
            {
              "internalType": "bytes",
              "name": "callData",
              "type": "bytes"
            },
            {
              "internalType": "uint256",
              "name": "callGasLimit",
              "type": "uint256"
            },
            {
              "internalType": "uint256",
              "name": "verificationGasLimit",
              "type": "uint256"
            },
            {
              "internalType": "uint256",
              "name": "preVerificationGas",
              "type": "uint256"
            },
            {
              "internalType": "uint256",
              "name": "maxFeePerGas",
              "type": "uint256"
            },
            {
              "internalType": "uint256",
              "name": "maxPriorityFeePerGas",
              "type": "uint256"
            },
            {
              "internalType": "bytes",
              "name": "paymasterAndData",
              "type": "bytes"
            },
            {
              "internalType": "bytes",
              "name": "signature",
              "type": "bytes"
            }
          ],
          "internalType": "struct UserOperation",
          "name": "userOp",
          "type": "tuple"
        },
        {
          "internalType": "bytes32",
          "name": "userOpHash",
          "type": "bytes32"
        },
        {
          "internalType": "uint256",
          "name": "missingAccountFunds",
          "type": "uint256"
        }
      ],
      "name": "validateUserOp",
      "outputs": [
        {
          "internalType": "uint256",
          "name": "validationData",
          "type": "uint256"
        }
      ],
      "stateMutability": "nonpayable",
      "type": "function"
    },
    {
      "inputs": [
        {
          "internalType": "address payable",
          "name": "withdrawAddress",
          "type": "address"
        },
        {
          "internalType": "uint256",
          "name": "amount",
          "type": "uint256"
        }
      ],
      "name": "withdrawDepositTo",
      "outputs": [],
      "stateMutability": "nonpayable",
      "type": "function"
    },
    {
      "stateMutability": "payable",
      "type": "receive"
    }
  ],
  "transactionHash": "0xf507c0cc2afc90f935e6ab5214490956b70531b32b89313056ae5fcbf592112d",
  "args": [
    "0x48e60BBb664aEfAc9f14aDB42e5FB5b4a119EB66"
  ],
  "numDeployments": 1,
  "solcInputHash": "dc820271053e73c530a056dd33a1431b",
  "bytecode": "0x60c0346200016f57601f620031b838819003918201601f19168301916001600160401b0383118484101762000174578084926020946040528339810103126200016f57516001600160a01b03811681036200016f573060805260a05260005460ff8160081c166200011a5760ff80821610620000de575b60405161302d90816200018b823960805181818161062101528181610ed3015261120a015260a05181818161084701528181610b5201528181610c3b0152818161177b01528181611a4401528181611c9001528181612384015281816128990152612e400152f35b60ff90811916176000557f7f26b83ff96e1f2b6a682f133852f6798a09c465da95921460cefb3847402498602060405160ff8152a13862000076565b60405162461bcd60e51b815260206004820152602760248201527f496e697469616c697a61626c653a20636f6e747261637420697320696e697469604482015266616c697a696e6760c81b6064820152608490fd5b600080fd5b634e487b7160e01b600052604160045260246000fdfe6080604052600436101561001b575b361561001957600080fd5b005b60003560e01c806223de291461027f57806301ffc9a71461027657806306394c9b1461026d5780630d8e6e2c14610264578063150b7a021461025b5780632fcb4f04146102525780633659cfe6146102495780633a871cdd14610240578063452a9320146101dd57806347e1da2a146102375780634a58db191461022e5780634d44560d146102255780634ef7c861146101f85780634f1ef2861461021c57806351335b501461021357806352d1902d1461020a578063570ca7351461018c57806373cc802a146102015780637c41c9a1146101f857806380a6dfa0146101ef5780638da5cb5b146101e6578063a75b87d2146101dd578063b0d691fe146101d4578063b61d27f6146101cb578063bc197c81146101c2578063c01d9ac9146101b9578063c399ec88146101b0578063c4d66de8146101a7578063d087d2881461019e578063d11a1f0714610195578063e7f43c681461018c5763f23a6e610361000e57610187611d1f565b61000e565b506101876112df565b50610187611cfd565b50610187611c0d565b50610187611aa9565b506101876119ca565b506101876118dc565b50610187611814565b5061018761179f565b5061018761172f565b50610187610933565b506101876116d9565b506101876116ab565b50610187610cb4565b50610187611332565b506101876111c3565b50610187611087565b50610187610e51565b50610187610bdc565b50610187610b0f565b506101876109b7565b506101876107dc565b506101876105cc565b50610187610580565b506101876104ee565b506101876104b3565b50610187610465565b50610187610374565b506101876102e8565b73ffffffffffffffffffffffffffffffffffffffff8116036102a657565b600080fd5b60a435906102b882610288565b565b9181601f840112156102a65782359167ffffffffffffffff83116102a657602083818601950101116102a657565b50346102a65760c07ffffffffffffffffffffffffffffffffffffffffffffffffffffffffffffffffc3601126102a657610323600435610288565b61032e602435610288565b610339604435610288565b67ffffffffffffffff6084358181116102a65761035a9036906004016102ba565b505060a4359081116102a6576100199036906004016102ba565b50346102a65760207ffffffffffffffffffffffffffffffffffffffffffffffffffffffffffffffffc3601126102a6576004357fffffffff0000000000000000000000000000000000000000000000000000000081168091036102a657807f150b7a02000000000000000000000000000000000000000000000000000000006020921490811561043b575b8115610411575b506040519015158152f35b7f01ffc9a70000000000000000000000000000000000000000000000000000000091501438610406565b7f4e2312e000000000000000000000000000000000000000000000000000000000811491506103ff565b50346102a65760207ffffffffffffffffffffffffffffffffffffffffffffffffffffffffffffffffc3601126102a6576104a0600435610288565b610019612748565b60009103126102a657565b50346102a65760007ffffffffffffffffffffffffffffffffffffffffffffffffffffffffffffffffc3601126102a657602060405160038152f35b50346102a65760807ffffffffffffffffffffffffffffffffffffffffffffffffffffffffffffffffc3601126102a657610529600435610288565b610534602435610288565b60643567ffffffffffffffff81116102a6576105549036906004016102ba565b505060206040517f150b7a02000000000000000000000000000000000000000000000000000000008152f35b50346102a65760207ffffffffffffffffffffffffffffffffffffffffffffffffffffffffffffffffc3601126102a6576100196004356105bf81610288565b6105c7612748565b612d85565b50346102a65760207ffffffffffffffffffffffffffffffffffffffffffffffffffffffffffffffffc3601126102a65760043561060881610288565b73ffffffffffffffffffffffffffffffffffffffff90817f0000000000000000000000000000000000000000000000000000000000000000169161064e83301415611db1565b61067d7f360894a13ba1a3210667c828492db98dca3e2076cc3735a920a3ca505d382bbc938285541614611e3c565b610685612748565b6040519061069282610d58565b600082527f4910fdfa16fed3260ed0e7147f7cc6da11a60208b5b9406d12a635614ffd91435460ff16156106cc5750506100199150611f6e565b6020600491604094939451928380927f52d1902d00000000000000000000000000000000000000000000000000000000825286165afa600091816107ac575b50610799576040517f08c379a000000000000000000000000000000000000000000000000000000000815260206004820152602e60248201527f45524331393637557067726164653a206e657720696d706c656d656e7461746960448201527f6f6e206973206e6f7420555550530000000000000000000000000000000000006064820152608490fd5b0390fd5b610019936107a79114611ee3565b61205a565b6107ce91925060203d81116107d5575b6107c68183610d90565b810190611ec7565b903861070b565b503d6107bc565b50346102a6577ffffffffffffffffffffffffffffffffffffffffffffffffffffffffffffffffc6060813601126102a6576004359067ffffffffffffffff82116102a6576101609082360301126102a65760443573ffffffffffffffffffffffffffffffffffffffff7f00000000000000000000000000000000000000000000000000000000000000001633036108d557610880610898926024359060040161241c565b908061089c575b506040519081529081906020820190565b0390f35b600080808093337ffffffffffffffffffffffffffffffffffffffffffffffffffffffffffffffffff1506108ce612199565b5038610887565b60646040517f08c379a000000000000000000000000000000000000000000000000000000000815260206004820152601c60248201527f6163636f756e743a206e6f742066726f6d20456e747279506f696e74000000006044820152fd5b50346102a65760007ffffffffffffffffffffffffffffffffffffffffffffffffffffffffffffffffc3601126102a657602073ffffffffffffffffffffffffffffffffffffffff60025416604051908152f35b9181601f840112156102a65782359167ffffffffffffffff83116102a6576020808501948460051b0101116102a657565b50346102a65760607ffffffffffffffffffffffffffffffffffffffffffffffffffffffffffffffffc3601126102a65767ffffffffffffffff6004358181116102a657610a08903690600401610986565b906024358381116102a657610a21903690600401610986565b936044359081116102a657610a3a903690600401610986565b92610a43612e28565b83851480610b06575b15610aa85760005b858110610a5d57005b80610a9e610a77610a72610aa3948a87612fa9565b612fc7565b610a82838b89612fa9565b35610a98610a91858b8a612fd1565b3691610e1a565b91612e00565b612f1d565b610a54565b60646040517f08c379a000000000000000000000000000000000000000000000000000000000815260206004820152601360248201527f77726f6e67206172726179206c656e67746873000000000000000000000000006044820152fd5b50858514610a4c565b506000807ffffffffffffffffffffffffffffffffffffffffffffffffffffffffffffffffc360112610bd95773ffffffffffffffffffffffffffffffffffffffff7f00000000000000000000000000000000000000000000000000000000000000001681813b15610bd957602491604051928380927fb760faf900000000000000000000000000000000000000000000000000000000825230600483015234905af18015610bcc575b610bc0575080f35b610bc990610d37565b80f35b610bd4611ed6565b610bb8565b80fd5b50346102a657600060407ffffffffffffffffffffffffffffffffffffffffffffffffffffffffffffffffc360112610bd957600435610c1a81610288565b610c22612748565b8173ffffffffffffffffffffffffffffffffffffffff807f00000000000000000000000000000000000000000000000000000000000000001692833b15610cb0576044908360405195869485937f205c287800000000000000000000000000000000000000000000000000000000855216600484015260243560248401525af18015610bcc57610bc0575080f35b8280fd5b50346102a65760007ffffffffffffffffffffffffffffffffffffffffffffffffffffffffffffffffc3601126102a657602073ffffffffffffffffffffffffffffffffffffffff60035416604051908152f35b507f4e487b7100000000000000000000000000000000000000000000000000000000600052604160045260246000fd5b67ffffffffffffffff8111610d4b57604052565b610d53610d07565b604052565b6020810190811067ffffffffffffffff821117610d4b57604052565b6060810190811067ffffffffffffffff821117610d4b57604052565b90601f7fffffffffffffffffffffffffffffffffffffffffffffffffffffffffffffffe0910116810190811067ffffffffffffffff821117610d4b57604052565b7fffffffffffffffffffffffffffffffffffffffffffffffffffffffffffffffe0601f60209267ffffffffffffffff8111610e0d575b01160190565b610e15610d07565b610e07565b929192610e2682610dd1565b91610e346040519384610d90565b8294818452818301116102a6578281602093846000960137010152565b5060407ffffffffffffffffffffffffffffffffffffffffffffffffffffffffffffffffc3601126102a657600435610e8881610288565b60243567ffffffffffffffff81116102a657366023820112156102a657610eb9903690602481600401359101610e1a565b9073ffffffffffffffffffffffffffffffffffffffff91827f00000000000000000000000000000000000000000000000000000000000000001692610f0084301415611db1565b610f2f7f360894a13ba1a3210667c828492db98dca3e2076cc3735a920a3ca505d382bbc948286541614611e3c565b610f37612748565b7f4910fdfa16fed3260ed0e7147f7cc6da11a60208b5b9406d12a635614ffd91435460ff1615610f6d5750506100199150611f6e565b6020600491604094939451928380927f52d1902d00000000000000000000000000000000000000000000000000000000825286165afa60009181611049575b50611036576040517f08c379a000000000000000000000000000000000000000000000000000000000815260206004820152602e60248201527f45524331393637557067726164653a206e657720696d706c656d656e7461746960448201527f6f6e206973206e6f7420555550530000000000000000000000000000000000006064820152608490fd5b610019936110449114611ee3565b612139565b61106291925060203d81116107d5576107c68183610d90565b9038610fac565b9080601f830112156102a65781602061108493359101610e1a565b90565b50346102a65760407ffffffffffffffffffffffffffffffffffffffffffffffffffffffffffffffffc3601126102a65767ffffffffffffffff6004358181116102a6576110d8903690600401611069565b906024359081116102a65761111f6110f7611125923690600401611069565b92611100612748565b83511561114d575b61111a8461111583611525565b61292c565b612a62565b91612a62565b907fad065cd6a1dddac2dc7e27f909052e40232570d17e2074ca52052eaf7ed84da1600080a3005b61115681611525565b611160815461154b565b908161116e575b5050611108565b601f82116001146111865760009150555b3880611167565b6111ae6111be926001601f6111a085600052602060002090565b920160051c820191016128d0565b6000908082528160208120915555565b61117f565b50346102a65760007ffffffffffffffffffffffffffffffffffffffffffffffffffffffffffffffffc3601126102a65773ffffffffffffffffffffffffffffffffffffffff7f000000000000000000000000000000000000000000000000000000000000000016300361125b576040517f360894a13ba1a3210667c828492db98dca3e2076cc3735a920a3ca505d382bbc8152602090f35b60846040517f08c379a000000000000000000000000000000000000000000000000000000000815260206004820152603860248201527f555550535570677261646561626c653a206d757374206e6f742062652063616c60448201527f6c6564207468726f7567682064656c656761746563616c6c00000000000000006064820152fd5b50346102a65760007ffffffffffffffffffffffffffffffffffffffffffffffffffffffffffffffffc3601126102a657602073ffffffffffffffffffffffffffffffffffffffff60015416604051908152f35b50346102a65760207ffffffffffffffffffffffffffffffffffffffffffffffffffffffffffffffffc3601126102a65760043561136e81610288565b73ffffffffffffffffffffffffffffffffffffffff81161561145b576113926127db565b6113de817fffffffffffffffffffff0000000000000000000000000000000000000000ffff75ffffffffffffffffffffffffffffffffffffffff00006000549260101b16911617600055565b7f062163f9c32b5f0b299e6e69f3bb349798cb5a44e0484821341ae9b5a5f8101d61145661142560005473ffffffffffffffffffffffffffffffffffffffff9060101c1690565b6040805173ffffffffffffffffffffffffffffffffffffffff92831681529490911660208501523093918291820190565b0390a2005b60646040517f08c379a000000000000000000000000000000000000000000000000000000000815260206004820152601d60248201527f6e6577206f776e657220697320746865207a65726f20616464726573730000006044820152fd5b60207ffffffffffffffffffffffffffffffffffffffffffffffffffffffffffffffffc8201126102a6576004359067ffffffffffffffff82116102a65761108491600401611069565b60005b8381106115155750506000910152565b8181015183820152602001611505565b602061153e918160405193828580945193849201611502565b8101600481520301902090565b90600182811c92168015611594575b602083101461156557565b7f4e487b7100000000000000000000000000000000000000000000000000000000600052602260045260246000fd5b91607f169161155a565b90604051918260008254926115b28461154b565b90818452600194858116908160001461161f57506001146115dc575b50506102b892500383610d90565b9093915060005260209081600020936000915b8183106116075750506102b8935082010138806115ce565b855488840185015294850194879450918301916115ef565b90506102b89550602093507fffffffffffffffffffffffffffffffffffffffffffffffffffffffffffffff0091501682840152151560051b82010138806115ce565b7fffffffffffffffffffffffffffffffffffffffffffffffffffffffffffffffe0601f604093602084526116a48151809281602088015260208888019101611502565b0116010190565b50346102a6576108986116cd6116c86116c3366114b9565b611525565b61159e565b60405191829182611661565b50346102a65760007ffffffffffffffffffffffffffffffffffffffffffffffffffffffffffffffffc3601126102a657602073ffffffffffffffffffffffffffffffffffffffff60005460101c16604051908152f35b50346102a65760007ffffffffffffffffffffffffffffffffffffffffffffffffffffffffffffffffc3601126102a657602060405173ffffffffffffffffffffffffffffffffffffffff7f0000000000000000000000000000000000000000000000000000000000000000168152f35b50346102a65760607ffffffffffffffffffffffffffffffffffffffffffffffffffffffffffffffffc3601126102a6576004356117db81610288565b6044359067ffffffffffffffff82116102a65761180a6118026100199336906004016102ba565b610a91612e28565b9060243590612e00565b50346102a65760a07ffffffffffffffffffffffffffffffffffffffffffffffffffffffffffffffffc3601126102a65761184f600435610288565b61185a602435610288565b67ffffffffffffffff6044358181116102a65761187b903690600401610986565b50506064358181116102a657611895903690600401610986565b50506084359081116102a6576118af9036906004016102ba565b50506040517fbc197c81000000000000000000000000000000000000000000000000000000008152602090f35b50346102a65760c07ffffffffffffffffffffffffffffffffffffffffffffffffffffffffffffffffc3601126102a65760043561191881610288565b6024359061192582610288565b60843567ffffffffffffffff928382116102a657366023830112156102a65781600401359384116119bd575b8360051b916040519260209561196987830186610d90565b8452602486850191830101913683116102a657602401905b8282106119a4576100198686866119966102ab565b926064359160443591612aeb565b86809183356119b281610288565b815201910190611981565b6119c5610d07565b611951565b50346102a65760007ffffffffffffffffffffffffffffffffffffffffffffffffffffffffffffffffc3601126102a65760206040517f70a08231000000000000000000000000000000000000000000000000000000008152306004820152818160248173ffffffffffffffffffffffffffffffffffffffff7f0000000000000000000000000000000000000000000000000000000000000000165afa908115611a9c575b600091611a7f575b50604051908152f35b611a969150823d81116107d5576107c68183610d90565b38611a76565b611aa4611ed6565b611a6e565b50346102a65760207ffffffffffffffffffffffffffffffffffffffffffffffffffffffffffffffffc3601126102a657600435611ae581610288565b611b4760005491611b0d60ff8460081c161580948195611bff575b8115611bdf575b5061228d565b82611b3e60017fffffffffffffffffffffffffffffffffffffffffffffffffffffffffffffff006000541617600055565b611ba957612318565b611b4d57005b611b7a7fffffffffffffffffffffffffffffffffffffffffffffffffffffffffffff00ff60005416600055565b604051600181527f7f26b83ff96e1f2b6a682f133852f6798a09c465da95921460cefb384740249890602090a1005b611bda6101007fffffffffffffffffffffffffffffffffffffffffffffffffffffffffffff00ff6000541617600055565b612318565b303b15915081611bf1575b5038611b07565b6001915060ff161438611bea565b600160ff8216109150611b00565b50346102a65760007ffffffffffffffffffffffffffffffffffffffffffffffffffffffffffffffffc3601126102a6576108986040517f35567e1a0000000000000000000000000000000000000000000000000000000081523060048201526000602482015260208160448173ffffffffffffffffffffffffffffffffffffffff7f0000000000000000000000000000000000000000000000000000000000000000165afa908115611cf0575b600091611cd257506040519081529081906020820190565b611cea915060203d81116107d5576107c68183610d90565b38610887565b611cf8611ed6565b611cba565b50346102a6576108986116cd611d12366114b9565b611d1a612748565b612a82565b50346102a65760a07ffffffffffffffffffffffffffffffffffffffffffffffffffffffffffffffffc3601126102a657611d5a600435610288565b611d65602435610288565b60843567ffffffffffffffff81116102a657611d859036906004016102ba565b505060206040517ff23a6e61000000000000000000000000000000000000000000000000000000008152f35b15611db857565b60846040517f08c379a000000000000000000000000000000000000000000000000000000000815260206004820152602c60248201527f46756e6374696f6e206d7573742062652063616c6c6564207468726f7567682060448201527f64656c656761746563616c6c00000000000000000000000000000000000000006064820152fd5b15611e4357565b60846040517f08c379a000000000000000000000000000000000000000000000000000000000815260206004820152602c60248201527f46756e6374696f6e206d7573742062652063616c6c6564207468726f7567682060448201527f6163746976652070726f787900000000000000000000000000000000000000006064820152fd5b908160209103126102a6575190565b506040513d6000823e3d90fd5b15611eea57565b60846040517f08c379a000000000000000000000000000000000000000000000000000000000815260206004820152602960248201527f45524331393637557067726164653a20756e737570706f727465642070726f7860448201527f6961626c655555494400000000000000000000000000000000000000000000006064820152fd5b803b15611fd65773ffffffffffffffffffffffffffffffffffffffff7f360894a13ba1a3210667c828492db98dca3e2076cc3735a920a3ca505d382bbc91167fffffffffffffffffffffffff0000000000000000000000000000000000000000825416179055565b60846040517f08c379a000000000000000000000000000000000000000000000000000000000815260206004820152602d60248201527f455243313936373a206e657720696d706c656d656e746174696f6e206973206e60448201527f6f74206120636f6e7472616374000000000000000000000000000000000000006064820152fd5b9061206482611f6e565b73ffffffffffffffffffffffffffffffffffffffff82167fbc7cd75a20ee27fd9adebab32041f755214dbc6bffa90cc0225b39da2e5c2d3b600080a2805115801590612131575b6120b3575050565b61212e91600080604051936120c785610d74565b602785527f416464726573733a206c6f772d6c6576656c2064656c65676174652063616c6c60208601527f206661696c6564000000000000000000000000000000000000000000000000006040860152602081519101845af4612128612199565b916121c9565b50565b5060006120ab565b9061214382611f6e565b73ffffffffffffffffffffffffffffffffffffffff82167fbc7cd75a20ee27fd9adebab32041f755214dbc6bffa90cc0225b39da2e5c2d3b600080a2805115801590612191576120b3575050565b5060016120ab565b3d156121c4573d906121aa82610dd1565b916121b86040519384610d90565b82523d6000602084013e565b606090565b9192901561224457508151156121dd575090565b3b156121e65790565b60646040517f08c379a000000000000000000000000000000000000000000000000000000000815260206004820152601d60248201527f416464726573733a2063616c6c20746f206e6f6e2d636f6e74726163740000006044820152fd5b8251909150156122575750805190602001fd5b610795906040519182917f08c379a000000000000000000000000000000000000000000000000000000000835260048301611661565b1561229457565b60846040517f08c379a000000000000000000000000000000000000000000000000000000000815260206004820152602e60248201527f496e697469616c697a61626c653a20636f6e747261637420697320616c72656160448201527f647920696e697469616c697a65640000000000000000000000000000000000006064820152fd5b612364907fffffffffffffffffffff0000000000000000000000000000000000000000ffff75ffffffffffffffffffffffffffffffffffffffff00006000549260101b16911617600055565b73ffffffffffffffffffffffffffffffffffffffff8060005460101c16907f0000000000000000000000000000000000000000000000000000000000000000167f47e55c76e7a6f1fd8996a1da8008c1ea29699cca35e7bcd057f2dec313b6e5de600080a3565b9035907fffffffffffffffffffffffffffffffffffffffffffffffffffffffffffffffe1813603018212156102a6570180359067ffffffffffffffff82116102a6576020019181360383136102a657565b9060405160208101917f19457468657265756d205369676e6564204d6573736167653a0a3332000000008352603c820152603c815261245a81610d74565b5190206124a161249973ffffffffffffffffffffffffffffffffffffffff92612493610a918560005460101c16966101408101906123cb565b90612673565b9190916124ea565b16036124ac57600090565b600190565b600511156124bb57565b7f4e487b7100000000000000000000000000000000000000000000000000000000600052602160045260246000fd5b6124f3816124b1565b806124fb5750565b612504816124b1565b6001810361256b576040517f08c379a000000000000000000000000000000000000000000000000000000000815260206004820152601860248201527f45434453413a20696e76616c6964207369676e617475726500000000000000006044820152606490fd5b612574816124b1565b600281036125db576040517f08c379a000000000000000000000000000000000000000000000000000000000815260206004820152601f60248201527f45434453413a20696e76616c6964207369676e6174757265206c656e677468006044820152606490fd5b806125e76003926124b1565b146125ee57565b6040517f08c379a000000000000000000000000000000000000000000000000000000000815260206004820152602260248201527f45434453413a20696e76616c6964207369676e6174757265202773272076616c60448201527f75650000000000000000000000000000000000000000000000000000000000006064820152608490fd5b9060418151146000146126a15761269d916020820151906060604084015193015160001a906126ab565b9091565b5050600090600290565b9291907f7fffffffffffffffffffffffffffffff5d576e7357a4501ddfe92f46681b20a0831161273c5791608094939160ff602094604051948552168484015260408301526060820152600093849182805260015afa1561272f575b815173ffffffffffffffffffffffffffffffffffffffff811615612729579190565b50600190565b612737611ed6565b612707565b50505050600090600390565b73ffffffffffffffffffffffffffffffffffffffff60005460101c16331480156127d2575b1561277457565b60646040517f08c379a000000000000000000000000000000000000000000000000000000000815260206004820152600a60248201527f6f6e6c79206f776e6572000000000000000000000000000000000000000000006044820152fd5b5030331461276d565b73ffffffffffffffffffffffffffffffffffffffff8060005460101c1633149081156128c1575b8115612895575b501561281157565b60846040517f08c379a000000000000000000000000000000000000000000000000000000000815260206004820152602c60248201527f6163636f756e743a206e6f74204f776e6572206f7220477561726469616e206f60448201527f7220456e747279506f696e7400000000000000000000000000000000000000006064820152fd5b90507f000000000000000000000000000000000000000000000000000000000000000016331438612809565b80915060025416331490612802565b8181106128db575050565b600081556001016128d0565b9190601f81116128f657505050565b6102b8926000526020600020906020601f840160051c83019310612922575b601f0160051c01906128d0565b9091508190612915565b919091825167ffffffffffffffff8111612a55575b6129558161294f845461154b565b846128e7565b602080601f83116001146129ae5750819293946000926129a3575b50507fffffffffffffffffffffffffffffffffffffffffffffffffffffffffffffffff8260011b9260031b1c1916179055565b015190503880612970565b907fffffffffffffffffffffffffffffffffffffffffffffffffffffffffffffffe08316956129e285600052602060002090565b926000905b888210612a3d57505083600195969710612a06575b505050811b019055565b01517fffffffffffffffffffffffffffffffffffffffffffffffffffffffffffffffff60f88460031b161c191690553880806129fc565b806001859682949686015181550195019301906129e7565b612a5d610d07565b612941565b612a7a90602060405192828480945193849201611502565b810103902090565b612a9e6020612aad928160405193828580945193849201611502565b8101600481520301902061159e565b90815115612ab757565b90506040516020810181811067ffffffffffffffff821117612ade575b6040526000815290565b612ae6610d07565b612ad4565b9491909293600094612b49865497612b1860ff8a60081c1615809a819b611bff578115611bdf575061228d565b88611b3e60017fffffffffffffffffffffffffffffffffffffffffffffffffffffffffffffff006000541617600055565b612b5285612d85565b73ffffffffffffffffffffffffffffffffffffffff8095169260405192612b7884610d74565b835260208301526040820152813b15612c9e57612bc8859283926040519485809481937fd1f944540000000000000000000000000000000000000000000000000000000083523060048401612ca2565b03925af18015612c91575b612c78575b501680612c67575b7f01c8fc2b86c63c18e9c37734988f6bb64b36f8b1235129a751f90ab2e4d959eb309280a3612c0b57565b612c387fffffffffffffffffffffffffffffffffffffffffffffffffffffffffffff00ff60005416600055565b604051600181527f7f26b83ff96e1f2b6a682f133852f6798a09c465da95921460cefb384740249890602090a1565b612c7330821415612d20565b612be0565b80612c85612c8b92610d37565b806104a8565b38612bd8565b612c99611ed6565b612bd3565b8480fd5b909173ffffffffffffffffffffffffffffffffffffffff8093168252602060408184015260a08301938251946060604086015285518091528260c086019601916000905b828210612d0757505050508160409160809301516060850152015191015290565b8351811688529684019692840192600190910190612ce6565b15612d2757565b60646040517f08c379a000000000000000000000000000000000000000000000000000000000815260206004820152601260248201527f696e7669746572206973206f6e6573656c6600000000000000000000000000006044820152fd5b73ffffffffffffffffffffffffffffffffffffffff1615612da257565b60646040517f08c379a000000000000000000000000000000000000000000000000000000000815260206004820152601c60248201527f677561726469616e20697320746865207a65726f2061646472657373000000006044820152fd5b916000928392602083519301915af1612e17612199565b9015612e205750565b602081519101fd5b73ffffffffffffffffffffffffffffffffffffffff807f0000000000000000000000000000000000000000000000000000000000000000163314908115612f0b575b8115612efd575b5015612e7957565b60846040517f08c379a000000000000000000000000000000000000000000000000000000000815260206004820152602c60248201527f6163636f756e743a206e6f74204f776e6572206f7220456e747279506f696e7460448201527f206f72204f70657261746f7200000000000000000000000000000000000000006064820152fd5b905060015416331438612e71565b80915060005460101c16331490612e6a565b7fffffffffffffffffffffffffffffffffffffffffffffffffffffffffffffffff8114612f4a5760010190565b7f4e487b7100000000000000000000000000000000000000000000000000000000600052601160045260246000fd5b507f4e487b7100000000000000000000000000000000000000000000000000000000600052603260045260246000fd5b9190811015612fba575b60051b0190565b612fc2612f79565b612fb3565b3561108481610288565b909161269d92811015612fea575b60051b8101906123cb565b612ff2612f79565b612fdf56fea2646970667358221220582cca059e2bfe2b9760b14860ad7e154fd06f5ebbd4c585f4b8e25d5e187b6464736f6c63430008110033"
}