{
  "address": "0xdCAF2C4e87c5ec76F8e1BBF07B21baCb9F3022F3",
  "abi": [
    {
      "inputs": [
        {
          "internalType": "contract IEntryPoint",
          "name": "_entryPoint",
          "type": "address"
        }
      ],
      "stateMutability": "nonpayable",
      "type": "constructor"
    },
    {
      "inputs": [],
      "name": "accountImplementation",
      "outputs": [
        {
          "internalType": "contract TSPAccount",
          "name": "",
          "type": "address"
        }
      ],
      "stateMutability": "view",
      "type": "function"
    },
    {
      "inputs": [
        {
          "internalType": "address",
          "name": "owner",
          "type": "address"
        },
        {
          "internalType": "uint256",
          "name": "salt",
          "type": "uint256"
        },
        {
          "internalType": "address",
          "name": "guardian",
          "type": "address"
        },
        {
          "internalType": "uint256",
          "name": "threshold",
          "type": "uint256"
        },
        {
          "internalType": "uint256",
          "name": "guardianDelay",
          "type": "uint256"
        },
        {
          "internalType": "address[]",
          "name": "guardians",
          "type": "address[]"
        },
        {
          "internalType": "address",
          "name": "inviter",
          "type": "address"
        }
      ],
      "name": "createAccount",
      "outputs": [
        {
          "internalType": "contract TSPAccount",
          "name": "ret",
          "type": "address"
        }
      ],
      "stateMutability": "nonpayable",
      "type": "function"
    },
    {
      "inputs": [
        {
          "internalType": "address",
          "name": "owner",
          "type": "address"
        },
        {
          "internalType": "uint256",
          "name": "salt",
          "type": "uint256"
        },
        {
          "internalType": "address",
          "name": "guardian",
          "type": "address"
        },
        {
          "internalType": "uint256",
          "name": "threshold",
          "type": "uint256"
        },
        {
          "internalType": "uint256",
          "name": "guardianDelay",
          "type": "uint256"
        },
        {
          "internalType": "address[]",
          "name": "guardians",
          "type": "address[]"
        },
        {
          "internalType": "address",
          "name": "inviter",
          "type": "address"
        }
      ],
      "name": "getAddress",
      "outputs": [
        {
          "internalType": "address",
          "name": "",
          "type": "address"
        }
      ],
      "stateMutability": "view",
      "type": "function"
    }
  ],
  "transactionHash": "0x46094b2827c02e57e90eaf51a6710f7acb9c40af091ad2e8f113fd478b14738b",
  "args": [
    "0x48e60BBb664aEfAc9f14aDB42e5FB5b4a119EB66"
  ],
  "numDeployments": 6,
  "solcInputHash": "6e4a3abd12603b88b1f7ffb92b25eb8d",
  "bytecode": "0x60a060405234801561001057600080fd5b5060405161443b38038061443b83398101604081905261002f91610088565b8060405161003c9061007b565b6001600160a01b039091168152602001604051809103906000f080158015610068573d6000803e3d6000fd5b506001600160a01b0316608052506100b8565b6134ae80610f8d83390190565b60006020828403121561009a57600080fd5b81516001600160a01b03811681146100b157600080fd5b9392505050565b608051610eae6100df6000396000818160510152818160fc015261026b0152610eae6000f3fe60806040523480156200001157600080fd5b5060043610620000465760003560e01c806311464fbe146200004b57806358b70a69146200009c5780637e77931614620000b3575b600080fd5b620000737f000000000000000000000000000000000000000000000000000000000000000081565b60405173ffffffffffffffffffffffffffffffffffffffff909116815260200160405180910390f35b62000073620000ad3660046200040d565b620000ca565b62000073620000c43660046200040d565b62000227565b6000620002198760001b60405180602001620000e690620003a6565b6020820181038252601f19601f820116604052507f00000000000000000000000000000000000000000000000000000000000000008b8a8a8a8a8a604051602401620001389695949392919062000555565b604080517fffffffffffffffffffffffffffffffffffffffffffffffffffffffffffffffe0818403018152918152602080830180517bffffffffffffffffffffffffffffffffffffffffffffffffffffffff167fc01d9ac9000000000000000000000000000000000000000000000000000000001790529051620001bf9392910162000614565b604080517fffffffffffffffffffffffffffffffffffffffffffffffffffffffffffffffe081840301815290829052620001fd929160200162000684565b6040516020818303038152906040528051906020012062000366565b90505b979650505050505050565b6000806200023b89898989898989620000ca565b905073ffffffffffffffffffffffffffffffffffffffff81163b801562000265575090506200021c565b8860001b7f00000000000000000000000000000000000000000000000000000000000000008b8a8a8a8a8a604051602401620002a79695949392919062000555565b604080517fffffffffffffffffffffffffffffffffffffffffffffffffffffffffffffffe08184030181529181526020820180517bffffffffffffffffffffffffffffffffffffffffffffffffffffffff167fc01d9ac900000000000000000000000000000000000000000000000000000000179052516200032990620003a6565b6200033692919062000614565b8190604051809103906000f590508015801562000357573d6000803e3d6000fd5b509a9950505050505050505050565b6000620003758383306200037c565b9392505050565b6000604051836040820152846020820152828152600b8101905060ff815360559020949350505050565b6107c180620006b883390190565b803573ffffffffffffffffffffffffffffffffffffffff81168114620003d957600080fd5b919050565b7f4e487b7100000000000000000000000000000000000000000000000000000000600052604160045260246000fd5b600080600080600080600060e0888a0312156200042957600080fd5b6200043488620003b4565b965060208089013596506200044c60408a01620003b4565b9550606089013594506080890135935060a089013567ffffffffffffffff808211156200047857600080fd5b818b0191508b601f8301126200048d57600080fd5b813581811115620004a257620004a2620003de565b8060051b6040517fffffffffffffffffffffffffffffffffffffffffffffffffffffffffffffffe0603f83011681018181108582111715620004e857620004e8620003de565b60405291825284820192508381018501918e8311156200050757600080fd5b938501935b8285101562000530576200052085620003b4565b845293850193928501926200050c565b8097505050505050506200054760c08901620003b4565b905092959891949750929550565b600060c0820173ffffffffffffffffffffffffffffffffffffffff808a1684526020818a168186015288604086015287606086015260c0608086015282875180855260e087019150828901945060005b81811015620005c5578551851683529483019491830191600101620005a5565b5050809450505080851660a08501525050979650505050505050565b60005b83811015620005fe578181015183820152602001620005e4565b838111156200060e576000848401525b50505050565b73ffffffffffffffffffffffffffffffffffffffff83168152604060208201526000825180604084015262000651816060850160208701620005e1565b601f017fffffffffffffffffffffffffffffffffffffffffffffffffffffffffffffffe016919091016060019392505050565b6000835162000698818460208801620005e1565b835190830190620006ae818360208801620005e1565b0194935050505056fe60806040526040516107c13803806107c183398101604081905261002291610321565b61002e82826000610035565b505061043e565b61003e8361006b565b60008251118061004b5750805b156100665761006483836100ab60201b6100291760201c565b505b505050565b610074816100d7565b6040516001600160a01b038216907fbc7cd75a20ee27fd9adebab32041f755214dbc6bffa90cc0225b39da2e5c2d3b90600090a250565b60606100d0838360405180606001604052806027815260200161079a602791396101a9565b9392505050565b6100ea8161022260201b6100551760201c565b6101515760405162461bcd60e51b815260206004820152602d60248201527f455243313936373a206e657720696d706c656d656e746174696f6e206973206e60448201526c1bdd08184818dbdb9d1c9858dd609a1b60648201526084015b60405180910390fd5b806101887f360894a13ba1a3210667c828492db98dca3e2076cc3735a920a3ca505d382bbc60001b61023160201b6100711760201c565b80546001600160a01b0319166001600160a01b039290921691909117905550565b6060600080856001600160a01b0316856040516101c691906103ef565b600060405180830381855af49150503d8060008114610201576040519150601f19603f3d011682016040523d82523d6000602084013e610206565b606091505b50909250905061021886838387610234565b9695505050505050565b6001600160a01b03163b151590565b90565b606083156102a357825160000361029c576001600160a01b0385163b61029c5760405162461bcd60e51b815260206004820152601d60248201527f416464726573733a2063616c6c20746f206e6f6e2d636f6e74726163740000006044820152606401610148565b50816102ad565b6102ad83836102b5565b949350505050565b8151156102c55781518083602001fd5b8060405162461bcd60e51b8152600401610148919061040b565b634e487b7160e01b600052604160045260246000fd5b60005b838110156103105781810151838201526020016102f8565b838111156100645750506000910152565b6000806040838503121561033457600080fd5b82516001600160a01b038116811461034b57600080fd5b60208401519092506001600160401b038082111561036857600080fd5b818501915085601f83011261037c57600080fd5b81518181111561038e5761038e6102df565b604051601f8201601f19908116603f011681019083821181831017156103b6576103b66102df565b816040528281528860208487010111156103cf57600080fd5b6103e08360208301602088016102f5565b80955050505050509250929050565b600082516104018184602087016102f5565b9190910192915050565b602081526000825180602084015261042a8160408501602087016102f5565b601f01601f19169190910160400192915050565b61034d8061044d6000396000f3fe60806040523661001357610011610017565b005b6100115b610027610022610074565b6100b9565b565b606061004e83836040518060600160405280602781526020016102f1602791396100dd565b9392505050565b73ffffffffffffffffffffffffffffffffffffffff163b151590565b90565b60006100b47f360894a13ba1a3210667c828492db98dca3e2076cc3735a920a3ca505d382bbc5473ffffffffffffffffffffffffffffffffffffffff1690565b905090565b3660008037600080366000845af43d6000803e8080156100d8573d6000f35b3d6000fd5b60606000808573ffffffffffffffffffffffffffffffffffffffff16856040516101079190610283565b600060405180830381855af49150503d8060008114610142576040519150601f19603f3d011682016040523d82523d6000602084013e610147565b606091505b509150915061015886838387610162565b9695505050505050565b606083156101fd5782516000036101f65773ffffffffffffffffffffffffffffffffffffffff85163b6101f6576040517f08c379a000000000000000000000000000000000000000000000000000000000815260206004820152601d60248201527f416464726573733a2063616c6c20746f206e6f6e2d636f6e747261637400000060448201526064015b60405180910390fd5b5081610207565b610207838361020f565b949350505050565b81511561021f5781518083602001fd5b806040517f08c379a00000000000000000000000000000000000000000000000000000000081526004016101ed919061029f565b60005b8381101561026e578181015183820152602001610256565b8381111561027d576000848401525b50505050565b60008251610295818460208701610253565b9190910192915050565b60208152600082518060208401526102be816040850160208701610253565b601f017fffffffffffffffffffffffffffffffffffffffffffffffffffffffffffffffe016919091016040019291505056fe416464726573733a206c6f772d6c6576656c2064656c65676174652063616c6c206661696c6564a26469706673582212201cd78ab6a31213989661cff2d7d05fc9b9c38b1a848e8249e2e398659a9eb7e364736f6c634300080f0033416464726573733a206c6f772d6c6576656c2064656c65676174652063616c6c206661696c6564a2646970667358221220e6bef8f6bd6a4c80ea3a14f92d62db0a3c81ecc18976ff488833c2b48b445a0564736f6c634300080f003360c0604052306080523480156200001557600080fd5b50604051620034ae380380620034ae83398101604081905262000038916200011a565b6001600160a01b03811660a052806200005062000058565b50506200014c565b600054610100900460ff1615620000c55760405162461bcd60e51b815260206004820152602760248201527f496e697469616c697a61626c653a20636f6e747261637420697320696e697469604482015266616c697a696e6760c81b606482015260840160405180910390fd5b60005460ff908116101562000118576000805460ff191660ff9081179091556040519081527f7f26b83ff96e1f2b6a682f133852f6798a09c465da95921460cefb38474024989060200160405180910390a15b565b6000602082840312156200012d57600080fd5b81516001600160a01b03811681146200014557600080fd5b9392505050565b60805160a0516132ef620001bf6000396000818161049f01528181610aed01528181610b9b015281816114e30152818161173401528181611bb001528181611da001526120130152600081816107920152818161084701528181610c5f01528181610d0f0152610f1a01526132ef6000f3fe6080604052600436106101ba5760003560e01c806373cc802a116100ec578063c01d9ac91161008a578063d087d28811610064578063d087d28814610580578063d11a1f0714610595578063e7f43c68146105c2578063f23a6e61146105ed57600080fd5b8063c01d9ac91461052b578063c399ec881461054b578063c4d66de81461056057600080fd5b8063a75b87d2116100c6578063a75b87d214610465578063b0d691fe14610490578063b61d27f6146104c3578063bc197c81146104e357600080fd5b806373cc802a146103c65780637c41c9a1146103e65780638da5cb5b1461043257600080fd5b80633a871cdd116101595780634d44560d116101335780634d44560d1461035e5780634f1ef2861461037e57806351335b501461039157806352d1902d146103b157600080fd5b80633a871cdd1461031657806347e1da2a146103365780634a58db191461035657600080fd5b80630d8e6e2c116101955780630d8e6e2c14610242578063150b7a02146102605780632fcb4f04146102d65780633659cfe6146102f657600080fd5b806223de29146101c657806301ffc9a7146101ed57806306394c9b1461022257600080fd5b366101c157005b600080fd5b3480156101d257600080fd5b506101eb6101e1366004612736565b5050505050505050565b005b3480156101f957600080fd5b5061020d6102083660046127e7565b610633565b60405190151581526020015b60405180910390f35b34801561022e57600080fd5b506101eb61023d366004612829565b610718565b34801561024e57600080fd5b5060015b604051908152602001610219565b34801561026c57600080fd5b506102a561027b366004612846565b7f150b7a020000000000000000000000000000000000000000000000000000000095945050505050565b6040517fffffffff000000000000000000000000000000000000000000000000000000009091168152602001610219565b3480156102e257600080fd5b506101eb6102f1366004612829565b610767565b34801561030257600080fd5b506101eb610311366004612829565b61077b565b34801561032257600080fd5b506102526103313660046128b9565b610982565b34801561034257600080fd5b506101eb610351366004612952565b6109a8565b6101eb610aeb565b34801561036a57600080fd5b506101eb6103793660046129ec565b610b91565b6101eb61038c366004612b0c565b610c48565b34801561039d57600080fd5b506101eb6103ac366004612b90565b610e3e565b3480156103bd57600080fd5b50610252610f00565b3480156103d257600080fd5b506101eb6103e1366004612829565b610fec565b3480156103f257600080fd5b5060035473ffffffffffffffffffffffffffffffffffffffff165b60405173ffffffffffffffffffffffffffffffffffffffff9091168152602001610219565b34801561043e57600080fd5b5060005461040d9062010000900473ffffffffffffffffffffffffffffffffffffffff1681565b34801561047157600080fd5b5060025473ffffffffffffffffffffffffffffffffffffffff1661040d565b34801561049c57600080fd5b507f000000000000000000000000000000000000000000000000000000000000000061040d565b3480156104cf57600080fd5b506101eb6104de366004612bea565b611101565b3480156104ef57600080fd5b506102a56104fe366004612c46565b7fbc197c810000000000000000000000000000000000000000000000000000000098975050505050505050565b34801561053757600080fd5b506101eb610546366004612ce4565b611150565b34801561055757600080fd5b5061025261149d565b34801561056c57600080fd5b506101eb61057b366004612829565b611554565b34801561058c57600080fd5b506102526116e7565b3480156105a157600080fd5b506105b56105b0366004612de0565b611763565b6040516102199190612e41565b3480156105ce57600080fd5b5060015473ffffffffffffffffffffffffffffffffffffffff1661040d565b3480156105f957600080fd5b506102a5610608366004612e92565b7ff23a6e61000000000000000000000000000000000000000000000000000000009695505050505050565b60007fffffffff0000000000000000000000000000000000000000000000000000000082167f150b7a020000000000000000000000000000000000000000000000000000000014806106c657507fffffffff0000000000000000000000000000000000000000000000000000000082167f4e2312e000000000000000000000000000000000000000000000000000000000145b8061071257507fffffffff0000000000000000000000000000000000000000000000000000000082167f01ffc9a700000000000000000000000000000000000000000000000000000000145b92915050565b610720611835565b600180547fffffffffffffffffffffffff00000000000000000000000000000000000000001673ffffffffffffffffffffffffffffffffffffffff92909216919091179055565b61076f611835565b610778816118c8565b50565b73ffffffffffffffffffffffffffffffffffffffff7f0000000000000000000000000000000000000000000000000000000000000000163003610845576040517f08c379a000000000000000000000000000000000000000000000000000000000815260206004820152602c60248201527f46756e6374696f6e206d7573742062652063616c6c6564207468726f7567682060448201527f64656c656761746563616c6c000000000000000000000000000000000000000060648201526084015b60405180910390fd5b7f000000000000000000000000000000000000000000000000000000000000000073ffffffffffffffffffffffffffffffffffffffff166108ba7f360894a13ba1a3210667c828492db98dca3e2076cc3735a920a3ca505d382bbc5473ffffffffffffffffffffffffffffffffffffffff1690565b73ffffffffffffffffffffffffffffffffffffffff161461095d576040517f08c379a000000000000000000000000000000000000000000000000000000000815260206004820152602c60248201527f46756e6374696f6e206d7573742062652063616c6c6564207468726f7567682060448201527f6163746976652070726f78790000000000000000000000000000000000000000606482015260840161083c565b6109668161198c565b6040805160008082526020820190925261077891839190611994565b600061098c611b98565b6109968484611c37565b90506109a182611d1d565b9392505050565b6109b0611d88565b84811480156109be57508483145b610a24576040517f08c379a000000000000000000000000000000000000000000000000000000000815260206004820152601360248201527f77726f6e67206172726179206c656e6774687300000000000000000000000000604482015260640161083c565b60005b85811015610ae257610ad0878783818110610a4457610a44612efc565b9050602002016020810190610a599190612829565b868684818110610a6b57610a6b612efc565b90506020020135858585818110610a8457610a84612efc565b9050602002810190610a969190612f2b565b8080601f016020809104026020016040519081016040528093929190818152602001838380828437600092019190915250611e9792505050565b80610ada81612f90565b915050610a27565b50505050505050565b7f00000000000000000000000000000000000000000000000000000000000000006040517fb760faf900000000000000000000000000000000000000000000000000000000815230600482015273ffffffffffffffffffffffffffffffffffffffff919091169063b760faf99034906024016000604051808303818588803b158015610b7657600080fd5b505af1158015610b8a573d6000803e3d6000fd5b5050505050565b610b99611835565b7f00000000000000000000000000000000000000000000000000000000000000006040517f205c287800000000000000000000000000000000000000000000000000000000815273ffffffffffffffffffffffffffffffffffffffff848116600483015260248201849052919091169063205c287890604401600060405180830381600087803b158015610c2c57600080fd5b505af1158015610c40573d6000803e3d6000fd5b505050505050565b73ffffffffffffffffffffffffffffffffffffffff7f0000000000000000000000000000000000000000000000000000000000000000163003610d0d576040517f08c379a000000000000000000000000000000000000000000000000000000000815260206004820152602c60248201527f46756e6374696f6e206d7573742062652063616c6c6564207468726f7567682060448201527f64656c656761746563616c6c0000000000000000000000000000000000000000606482015260840161083c565b7f000000000000000000000000000000000000000000000000000000000000000073ffffffffffffffffffffffffffffffffffffffff16610d827f360894a13ba1a3210667c828492db98dca3e2076cc3735a920a3ca505d382bbc5473ffffffffffffffffffffffffffffffffffffffff1690565b73ffffffffffffffffffffffffffffffffffffffff1614610e25576040517f08c379a000000000000000000000000000000000000000000000000000000000815260206004820152602c60248201527f46756e6374696f6e206d7573742062652063616c6c6564207468726f7567682060448201527f6163746976652070726f78790000000000000000000000000000000000000000606482015260840161083c565b610e2e8261198c565b610e3a82826001611994565b5050565b610e46611835565b80518190600003610e7b57600483604051610e619190612fef565b90815260200160405180910390206000610e7b9190612679565b81600484604051610e8c9190612fef565b90815260200160405180910390209081610ea691906130a4565b5081604051610eb59190612fef565b604051809103902083604051610ecb9190612fef565b604051908190038120907fad065cd6a1dddac2dc7e27f909052e40232570d17e2074ca52052eaf7ed84da190600090a3505050565b60003073ffffffffffffffffffffffffffffffffffffffff7f00000000000000000000000000000000000000000000000000000000000000001614610fc7576040517f08c379a000000000000000000000000000000000000000000000000000000000815260206004820152603860248201527f555550535570677261646561626c653a206d757374206e6f742062652063616c60448201527f6c6564207468726f7567682064656c656761746563616c6c0000000000000000606482015260840161083c565b507f360894a13ba1a3210667c828492db98dca3e2076cc3735a920a3ca505d382bbc90565b73ffffffffffffffffffffffffffffffffffffffff8116611069576040517f08c379a000000000000000000000000000000000000000000000000000000000815260206004820152601d60248201527f6e6577206f776e657220697320746865207a65726f2061646472657373000000604482015260640161083c565b611071611f14565b600080547fffffffffffffffffffff0000000000000000000000000000000000000000ffff166201000073ffffffffffffffffffffffffffffffffffffffff84811682810293909317938490556040805192909404168152602081019190915230917f062163f9c32b5f0b299e6e69f3bb349798cb5a44e0484821341ae9b5a5f8101d910160405180910390a250565b611109611d88565b61114a848484848080601f016020809104026020016040519081016040528093929190818152602001838380828437600092019190915250611e9792505050565b50505050565b600054610100900460ff16158080156111705750600054600160ff909116105b8061118a5750303b15801561118a575060005460ff166001145b611216576040517f08c379a000000000000000000000000000000000000000000000000000000000815260206004820152602e60248201527f496e697469616c697a61626c653a20636f6e747261637420697320616c72656160448201527f647920696e697469616c697a6564000000000000000000000000000000000000606482015260840161083c565b600080547fffffffffffffffffffffffffffffffffffffffffffffffffffffffffffffff00166001179055801561127457600080547fffffffffffffffffffffffffffffffffffffffffffffffffffffffffffff00ff166101001790555b61127d87611fbd565b611286866118c8565b600254604080516060810182528581526020810188905280820187905290517fd1f9445400000000000000000000000000000000000000000000000000000000815273ffffffffffffffffffffffffffffffffffffffff9092169163d1f94454916112f6913091906004016131be565b600060405180830381600087803b15801561131057600080fd5b505af1158015611324573d6000803e3d6000fd5b5050505073ffffffffffffffffffffffffffffffffffffffff8216156113c3573073ffffffffffffffffffffffffffffffffffffffff8316036113c3576040517f08c379a000000000000000000000000000000000000000000000000000000000815260206004820152601260248201527f696e7669746572206973206f6e6573656c660000000000000000000000000000604482015260640161083c565b600380547fffffffffffffffffffffffff00000000000000000000000000000000000000001673ffffffffffffffffffffffffffffffffffffffff84169081179091556040513091907f01c8fc2b86c63c18e9c37734988f6bb64b36f8b1235129a751f90ab2e4d959eb90600090a38015610ae257600080547fffffffffffffffffffffffffffffffffffffffffffffffffffffffffffff00ff169055604051600181527f7f26b83ff96e1f2b6a682f133852f6798a09c465da95921460cefb38474024989060200160405180910390a150505050505050565b6040517f70a0823100000000000000000000000000000000000000000000000000000000815230600482015260009073ffffffffffffffffffffffffffffffffffffffff7f000000000000000000000000000000000000000000000000000000000000000016906370a08231906024015b602060405180830381865afa15801561152b573d6000803e3d6000fd5b505050506040513d601f19601f8201168201806040525081019061154f919061324a565b905090565b600054610100900460ff16158080156115745750600054600160ff909116105b8061158e5750303b15801561158e575060005460ff166001145b61161a576040517f08c379a000000000000000000000000000000000000000000000000000000000815260206004820152602e60248201527f496e697469616c697a61626c653a20636f6e747261637420697320616c72656160448201527f647920696e697469616c697a6564000000000000000000000000000000000000606482015260840161083c565b600080547fffffffffffffffffffffffffffffffffffffffffffffffffffffffffffffff00166001179055801561167857600080547fffffffffffffffffffffffffffffffffffffffffffffffffffffffffffff00ff166101001790555b61168182611fbd565b8015610e3a57600080547fffffffffffffffffffffffffffffffffffffffffffffffffffffffffffff00ff169055604051600181527f7f26b83ff96e1f2b6a682f133852f6798a09c465da95921460cefb38474024989060200160405180910390a15050565b6040517f35567e1a0000000000000000000000000000000000000000000000000000000081523060048201526000602482018190529073ffffffffffffffffffffffffffffffffffffffff7f000000000000000000000000000000000000000000000000000000000000000016906335567e1a9060440161150e565b606061176d611835565b60048260405161177d9190612fef565b908152602001604051809103902080546117969061300b565b80601f01602080910402602001604051908101604052809291908181526020018280546117c29061300b565b801561180f5780601f106117e45761010080835404028352916020019161180f565b820191906000526020600020905b8154815290600101906020018083116117f257829003601f168201915b50505050509050805160000361183057506040805160208101909152600081525b919050565b60005462010000900473ffffffffffffffffffffffffffffffffffffffff1633148061186057503330145b6118c6576040517f08c379a000000000000000000000000000000000000000000000000000000000815260206004820152600a60248201527f6f6e6c79206f776e657200000000000000000000000000000000000000000000604482015260640161083c565b565b73ffffffffffffffffffffffffffffffffffffffff8116611945576040517f08c379a000000000000000000000000000000000000000000000000000000000815260206004820152601c60248201527f677561726469616e20697320746865207a65726f206164647265737300000000604482015260640161083c565b600280547fffffffffffffffffffffffff00000000000000000000000000000000000000001673ffffffffffffffffffffffffffffffffffffffff92909216919091179055565b610778611835565b7f4910fdfa16fed3260ed0e7147f7cc6da11a60208b5b9406d12a635614ffd91435460ff16156119cc576119c78361205c565b505050565b8273ffffffffffffffffffffffffffffffffffffffff166352d1902d6040518163ffffffff1660e01b8152600401602060405180830381865afa925050508015611a51575060408051601f3d9081017fffffffffffffffffffffffffffffffffffffffffffffffffffffffffffffffe0168201909252611a4e9181019061324a565b60015b611add576040517f08c379a000000000000000000000000000000000000000000000000000000000815260206004820152602e60248201527f45524331393637557067726164653a206e657720696d706c656d656e7461746960448201527f6f6e206973206e6f742055555053000000000000000000000000000000000000606482015260840161083c565b7f360894a13ba1a3210667c828492db98dca3e2076cc3735a920a3ca505d382bbc8114611b8c576040517f08c379a000000000000000000000000000000000000000000000000000000000815260206004820152602960248201527f45524331393637557067726164653a20756e737570706f727465642070726f7860448201527f6961626c65555549440000000000000000000000000000000000000000000000606482015260840161083c565b506119c7838383612166565b3373ffffffffffffffffffffffffffffffffffffffff7f000000000000000000000000000000000000000000000000000000000000000016146118c6576040517f08c379a000000000000000000000000000000000000000000000000000000000815260206004820152601c60248201527f6163636f756e743a206e6f742066726f6d20456e747279506f696e7400000000604482015260640161083c565b600080611c91836040517f19457468657265756d205369676e6564204d6573736167653a0a3332000000006020820152603c8101829052600090605c01604051602081830303815290604052805190602001209050919050565b9050611ce1611ca4610140860186612f2b565b8080601f016020809104026020016040519081016040528093929190818152602001838380828437600092019190915250859392505061218b9050565b60005462010000900473ffffffffffffffffffffffffffffffffffffffff908116911614611d13576001915050610712565b5060009392505050565b80156107785760405160009033907fffffffffffffffffffffffffffffffffffffffffffffffffffffffffffffffff90849084818181858888f193505050503d8060008114610b8a576040519150601f19603f3d011682016040523d82523d6000602084013e610b8a565b3373ffffffffffffffffffffffffffffffffffffffff7f0000000000000000000000000000000000000000000000000000000000000000161480611de9575060005462010000900473ffffffffffffffffffffffffffffffffffffffff1633145b80611e0b575060015473ffffffffffffffffffffffffffffffffffffffff1633145b6118c6576040517f08c379a000000000000000000000000000000000000000000000000000000000815260206004820152602c60248201527f6163636f756e743a206e6f74204f776e6572206f7220456e747279506f696e7460448201527f206f72204f70657261746f720000000000000000000000000000000000000000606482015260840161083c565b6000808473ffffffffffffffffffffffffffffffffffffffff168484604051611ec09190612fef565b60006040518083038185875af1925050503d8060008114611efd576040519150601f19603f3d011682016040523d82523d6000602084013e611f02565b606091505b509150915081610b8a57805160208201fd5b60005462010000900473ffffffffffffffffffffffffffffffffffffffff16331480611f57575060025473ffffffffffffffffffffffffffffffffffffffff1633145b6118c6576040517f08c379a000000000000000000000000000000000000000000000000000000000815260206004820152601e60248201527f6163636f756e743a206e6f74204f776e6572206f7220477561726469616e0000604482015260640161083c565b600080547fffffffffffffffffffff0000000000000000000000000000000000000000ffff166201000073ffffffffffffffffffffffffffffffffffffffff8481168202929092178084556040519190048216927f0000000000000000000000000000000000000000000000000000000000000000909216917f47e55c76e7a6f1fd8996a1da8008c1ea29699cca35e7bcd057f2dec313b6e5de91a350565b73ffffffffffffffffffffffffffffffffffffffff81163b612100576040517f08c379a000000000000000000000000000000000000000000000000000000000815260206004820152602d60248201527f455243313936373a206e657720696d706c656d656e746174696f6e206973206e60448201527f6f74206120636f6e747261637400000000000000000000000000000000000000606482015260840161083c565b7f360894a13ba1a3210667c828492db98dca3e2076cc3735a920a3ca505d382bbc80547fffffffffffffffffffffffff00000000000000000000000000000000000000001673ffffffffffffffffffffffffffffffffffffffff92909216919091179055565b61216f836121af565b60008251118061217c5750805b156119c75761114a83836121fc565b600080600061219a8585612221565b915091506121a781612266565b509392505050565b6121b88161205c565b60405173ffffffffffffffffffffffffffffffffffffffff8216907fbc7cd75a20ee27fd9adebab32041f755214dbc6bffa90cc0225b39da2e5c2d3b90600090a250565b60606109a1838360405180606001604052806027815260200161329360279139612419565b60008082516041036122575760208301516040840151606085015160001a61224b8782858561249e565b9450945050505061225f565b506000905060025b9250929050565b600081600481111561227a5761227a613263565b036122825750565b600181600481111561229657612296613263565b036122fd576040517f08c379a000000000000000000000000000000000000000000000000000000000815260206004820152601860248201527f45434453413a20696e76616c6964207369676e61747572650000000000000000604482015260640161083c565b600281600481111561231157612311613263565b03612378576040517f08c379a000000000000000000000000000000000000000000000000000000000815260206004820152601f60248201527f45434453413a20696e76616c6964207369676e6174757265206c656e67746800604482015260640161083c565b600381600481111561238c5761238c613263565b03610778576040517f08c379a000000000000000000000000000000000000000000000000000000000815260206004820152602260248201527f45434453413a20696e76616c6964207369676e6174757265202773272076616c60448201527f7565000000000000000000000000000000000000000000000000000000000000606482015260840161083c565b60606000808573ffffffffffffffffffffffffffffffffffffffff16856040516124439190612fef565b600060405180830381855af49150503d806000811461247e576040519150601f19603f3d011682016040523d82523d6000602084013e612483565b606091505b50915091506124948683838761258d565b9695505050505050565b6000807f7fffffffffffffffffffffffffffffff5d576e7357a4501ddfe92f46681b20a08311156124d55750600090506003612584565b6040805160008082526020820180845289905260ff881692820192909252606081018690526080810185905260019060a0016020604051602081039080840390855afa158015612529573d6000803e3d6000fd5b50506040517fffffffffffffffffffffffffffffffffffffffffffffffffffffffffffffffe0015191505073ffffffffffffffffffffffffffffffffffffffff811661257d57600060019250925050612584565b9150600090505b94509492505050565b6060831561262357825160000361261c5773ffffffffffffffffffffffffffffffffffffffff85163b61261c576040517f08c379a000000000000000000000000000000000000000000000000000000000815260206004820152601d60248201527f416464726573733a2063616c6c20746f206e6f6e2d636f6e7472616374000000604482015260640161083c565b508161262d565b61262d8383612635565b949350505050565b8151156126455781518083602001fd5b806040517f08c379a000000000000000000000000000000000000000000000000000000000815260040161083c9190612e41565b5080546126859061300b565b6000825580601f10612695575050565b601f01602090049060005260206000209081019061077891905b808211156126c357600081556001016126af565b5090565b73ffffffffffffffffffffffffffffffffffffffff8116811461077857600080fd5b8035611830816126c7565b60008083601f84011261270657600080fd5b50813567ffffffffffffffff81111561271e57600080fd5b60208301915083602082850101111561225f57600080fd5b60008060008060008060008060c0898b03121561275257600080fd5b883561275d816126c7565b9750602089013561276d816126c7565b9650604089013561277d816126c7565b955060608901359450608089013567ffffffffffffffff808211156127a157600080fd5b6127ad8c838d016126f4565b909650945060a08b01359150808211156127c657600080fd5b506127d38b828c016126f4565b999c989b5096995094979396929594505050565b6000602082840312156127f957600080fd5b81357fffffffff00000000000000000000000000000000000000000000000000000000811681146109a157600080fd5b60006020828403121561283b57600080fd5b81356109a1816126c7565b60008060008060006080868803121561285e57600080fd5b8535612869816126c7565b94506020860135612879816126c7565b935060408601359250606086013567ffffffffffffffff81111561289c57600080fd5b6128a8888289016126f4565b969995985093965092949392505050565b6000806000606084860312156128ce57600080fd5b833567ffffffffffffffff8111156128e557600080fd5b840161016081870312156128f857600080fd5b95602085013595506040909401359392505050565b60008083601f84011261291f57600080fd5b50813567ffffffffffffffff81111561293757600080fd5b6020830191508360208260051b850101111561225f57600080fd5b6000806000806000806060878903121561296b57600080fd5b863567ffffffffffffffff8082111561298357600080fd5b61298f8a838b0161290d565b909850965060208901359150808211156129a857600080fd5b6129b48a838b0161290d565b909650945060408901359150808211156129cd57600080fd5b506129da89828a0161290d565b979a9699509497509295939492505050565b600080604083850312156129ff57600080fd5b8235612a0a816126c7565b946020939093013593505050565b7f4e487b7100000000000000000000000000000000000000000000000000000000600052604160045260246000fd5b604051601f82017fffffffffffffffffffffffffffffffffffffffffffffffffffffffffffffffe016810167ffffffffffffffff81118282101715612a8e57612a8e612a18565b604052919050565b600067ffffffffffffffff831115612ab057612ab0612a18565b612ae160207fffffffffffffffffffffffffffffffffffffffffffffffffffffffffffffffe0601f86011601612a47565b9050828152838383011115612af557600080fd5b828260208301376000602084830101529392505050565b60008060408385031215612b1f57600080fd5b8235612b2a816126c7565b9150602083013567ffffffffffffffff811115612b4657600080fd5b8301601f81018513612b5757600080fd5b612b6685823560208401612a96565b9150509250929050565b600082601f830112612b8157600080fd5b6109a183833560208501612a96565b60008060408385031215612ba357600080fd5b823567ffffffffffffffff80821115612bbb57600080fd5b612bc786838701612b70565b93506020850135915080821115612bdd57600080fd5b50612b6685828601612b70565b60008060008060608587031215612c0057600080fd5b8435612c0b816126c7565b935060208501359250604085013567ffffffffffffffff811115612c2e57600080fd5b612c3a878288016126f4565b95989497509550505050565b60008060008060008060008060a0898b031215612c6257600080fd5b8835612c6d816126c7565b97506020890135612c7d816126c7565b9650604089013567ffffffffffffffff80821115612c9a57600080fd5b612ca68c838d0161290d565b909850965060608b0135915080821115612cbf57600080fd5b612ccb8c838d0161290d565b909650945060808b01359150808211156127c657600080fd5b60008060008060008060c08789031215612cfd57600080fd5b8635612d08816126c7565b9550602087810135612d19816126c7565b95506040880135945060608801359350608088013567ffffffffffffffff80821115612d4457600080fd5b818a0191508a601f830112612d5857600080fd5b813581811115612d6a57612d6a612a18565b8060051b9150612d7b848301612a47565b818152918301840191848101908d841115612d9557600080fd5b938501935b83851015612dbf5784359250612daf836126c7565b8282529385019390850190612d9a565b809750505050505050612dd460a088016126e9565b90509295509295509295565b600060208284031215612df257600080fd5b813567ffffffffffffffff811115612e0957600080fd5b61262d84828501612b70565b60005b83811015612e30578181015183820152602001612e18565b8381111561114a5750506000910152565b6020815260008251806020840152612e60816040850160208701612e15565b601f017fffffffffffffffffffffffffffffffffffffffffffffffffffffffffffffffe0169190910160400192915050565b60008060008060008060a08789031215612eab57600080fd5b8635612eb6816126c7565b95506020870135612ec6816126c7565b94506040870135935060608701359250608087013567ffffffffffffffff811115612ef057600080fd5b6129da89828a016126f4565b7f4e487b7100000000000000000000000000000000000000000000000000000000600052603260045260246000fd5b60008083357fffffffffffffffffffffffffffffffffffffffffffffffffffffffffffffffe1843603018112612f6057600080fd5b83018035915067ffffffffffffffff821115612f7b57600080fd5b60200191503681900382131561225f57600080fd5b60007fffffffffffffffffffffffffffffffffffffffffffffffffffffffffffffffff8203612fe8577f4e487b7100000000000000000000000000000000000000000000000000000000600052601160045260246000fd5b5060010190565b60008251613001818460208701612e15565b9190910192915050565b600181811c9082168061301f57607f821691505b602082108103613058577f4e487b7100000000000000000000000000000000000000000000000000000000600052602260045260246000fd5b50919050565b601f8211156119c757600081815260208120601f850160051c810160208610156130855750805b601f850160051c820191505b81811015610c4057828155600101613091565b815167ffffffffffffffff8111156130be576130be612a18565b6130d2816130cc845461300b565b8461305e565b602080601f83116001811461312557600084156130ef5750858301515b7fffffffffffffffffffffffffffffffffffffffffffffffffffffffffffffffff600386901b1c1916600185901b178555610c40565b6000858152602081207fffffffffffffffffffffffffffffffffffffffffffffffffffffffffffffffe08616915b8281101561317257888601518255948401946001909101908401613153565b50858210156131ae57878501517fffffffffffffffffffffffffffffffffffffffffffffffffffffffffffffffff600388901b60f8161c191681555b5050505050600190811b01905550565b600073ffffffffffffffffffffffffffffffffffffffff8085168352602060408185015260a0840185516060604087015281815180845260c0880191508483019350600092505b8083101561322757835186168252928401926001929092019190840190613205565b508388015160608801526040880151608088015280955050505050509392505050565b60006020828403121561325c57600080fd5b5051919050565b7f4e487b7100000000000000000000000000000000000000000000000000000000600052602160045260246000fdfe416464726573733a206c6f772d6c6576656c2064656c65676174652063616c6c206661696c6564a26469706673582212207db928c61b8dc66082603e4a77036ff4d8e55ccae2aec484eaef9f2d8d537b7864736f6c634300080f0033",
  "devdoc": {
    "kind": "dev",
    "methods": {},
    "version": 1
  },
  "userdoc": {
    "kind": "user",
    "methods": {
      "createAccount(address,uint256,address,uint256,uint256,address[],address)": {
        "notice": "create an account, and return its address. returns the address even if the account is already deployed. Note that during UserOperation execution, this method is called only if the account is not deployed. This method returns an existing account address so that entryPoint.getSenderAddress() would work even after account creation"
      },
      "getAddress(address,uint256,address,uint256,uint256,address[],address)": {
        "notice": "calculate the counterfactual address of this account as it would be returned by createAccount()"
      }
    },
    "notice": "A sample factory contract for SimpleAccount A UserOperations \"initCode\" holds the address of the factory, and a method call (to createAccount, in this sample factory). The factory's createAccount returns the target account address even if it is already installed. This way, the entryPoint.getSenderAddress() can be called either before or after the account is created.",
    "version": 1
  },
  "storageLayout": {
    "storage": [],
    "types": null
  }
}